:1000000080312828003008007E14803100308600BE
:10001000003087000B1F0D280E2826284E01171CC4
:10002000122813281B280D1C162817281B288C3172
:10003000AF2480312628971C1E281F2826288D1CB7
:100040002228232826288D314F2580317E10090053
:1000500080312A286D3084008D308500593086002B
:10006000003087000F308C31DF2480312030840055
:100070000030850024308C31D9248031A0308400B8
:100080000030850010308C31D92480317E10400141
:100090008D312B2D4001CE004E35263E8600870146
:1000A0004E082E3E840085010008800ACA000130F7
:1000B000CA35890B582820304A07CB000630C500C6
:1000C0004E088E313126803140014B07CC004C0860
:1000D00084008501403F803F413F813F4E082E3ED6
:1000E0008600870103300102031C772878287D28C9
:1000F0004E082E3E8600870181010630C5004E085D
:100100008E3131268031223E86008701403F4001FA
:10011000CA00413FCB000630C5004E088E31312663
:100120008031203E86008701403F4001CC00413FA6
:10013000CD004B084D02031D9F284A084C02031CAA
:10014000A228A3281C290630C5004E088E3131266E
:100150008031243E86008701403F4001CA00413F74
:10016000CB000630C5004E088E3131268031223E4C
:1001700086008701403F4001CC00413FCD004B0845
:100180004D02031DC5284A084C02031CC828C92873
:10019000D8280630C5004E088E3131268031223EE7
:1001A00086008701403F4001C800413FC9009429B3
:1001B0000630C5004E088E3131268031243E86003F
:1001C0008701403F4001CA00413FCB000630C500D7
:1001D0004E088E3131268031203E86008701403F17
:1001E0004001CC00413FCD004B084D02031DFA28D1
:1001F0004A084C02031CFD28FE280D290630C500C4
:100200004E088E3131268031243E86008701403FE2
:100210004001C800413FC90094290630C5004E087E
:100220008E3131268031203E86008701403F4001DB
:10023000C800413FC90094290630C5004E088E31E0
:1002400031268031243E86008701403F4001CA00AC
:10025000413FCB000630C5004E088E31312680313B
:10026000203E86008701403F4001CC00413FCD0049
:100270004B084D02031D3E294A084C02031C41292C
:10028000422951290630C5004E088E313126803171
:10029000203E86008701403F4001C800413FC90021
:1002A00094290630C5004E088E3131268031243E17
:1002B00086008701403F4001CA00413FCB00063025
:1002C000C5004E088E3131268031223E86008701DE
:1002D000403F4001CC00413FCD004B084D02031D83
:1002E00073294A084C02031C76297729862906308F
:1002F000C5004E088E3131268031243E86008701AC
:10030000403F4001C800413FC90094290630C50064
:100310004E088E3131268031223E86008701403FD3
:100320004001C800413FC90008004001CF01003032
:100330008B1B0130CE00A92901304001B4073403E2
:10034000031DA329A429A929B401B3010130CF00B9
:10035000BC2934088E3159268131003A031DB12958
:10036000B2299C29400134088E316E268131003A31
:100370000319BB29BC299C2940014F08031DC12931
:10038000C229732A0C30C50034088E3131268131E0
:10039000383E4001D0005008C5008D312025813104
:1003A000003A0319D429D529EA2940015008043E0E
:1003B00086008701403F42018C00413F8D00400193
:1003C0005008023E86008701403F42018F00413FB6
:1003D0009000132A40015008C5008C31FA24813165
:1003E000003A0319F429F5290A2A40015008023E6F
:1003F00086008701403F42018F00413F900040014D
:100400005008043E86008701403F42018C00413F76
:100410008D00132A003042019000C0308F00003060
:100420008D00C0308C0040012F08C900CA01490866
:1004300042018F0740014A084201903D4001500AA5
:1004400086008701010841019F0040015008063ED7
:1004500086008701403FC900413FCA00CA36C90C27
:10046000490841019A0040015008083E8600870172
:10047000010842018E00911701304001B300C5010F
:10048000C50A34088E319A2681318B13420111142A
:1004900040015008063E86008701403FC900413FA9
:1004A000CA000930C935CA0D890B522A4908CB0048
:1004B0004A08CC00CD010230CB35CC0DCD0D890BD7
:1004C0005C2A4B084101960040014C08410197000D
:1004D00040014D084101980040014E0C031C8B1354
:1004E00003188B17B2010800FA0100308B1B013092
:1004F000F900872A01304001B4073403031D812A23
:10050000822A872AB401B3010130FA009B2A4001F4
:1005100034088E311D268231003A031D902A912A1B
:100520007A2A400134088E3109268231003A0319B3
:100530009A2A9B2A7A2A7A08031D9F2AA02A3F2BEF
:100540000C30F000400134088D31F6258231383E00
:10055000FB007B08F0008D310B258231003A031936
:10056000B22AB32AC52A7B08043E86008701403F91
:1005700042018C00413F8D007B08023E86008701CE
:10058000403F8F00413F9000EA2A7B08F0008C3109
:10059000E5248231003A0319CE2ACF2AE12A7B08CA
:1005A000023E86008701403F42018F00413F90009C
:1005B0007B08043E86008701403F8C00413F8D0050
:1005C000EA2A003042019000C0308F0000308D00D8
:1005D000C0308C0040012F08F400F501740842017E
:1005E0008F077508903D7B0A86008701010841014D
:1005F0009F007B08063E86008701403FF400413F94
:10060000F500F536F40C74089A007B08083E860065
:100610008701010842018E00911701304001B300AB
:10062000F001F00A34088E31832682318B134201A7
:1006300011147B08063E86008701403FF400413FCD
:10064000F5000930F435F50D890B222B7408F600FE
:100650007508F700F8010230F635F70DF80D890B33
:100660002C2B7608410196007708970078089800AF
:10067000790C031C8B1303188B174001B20108007F
:1006800040015008093E860087010108803AD100E8
:1006900050080E3E860087010103FF3A803AD102DE
:1006A0000318532B542B7D2B50080A3E86008701DC
:1006B0000130810741310318810A50080A3E860043
:1006C0008701403FD100413FD2000030520241300B
:1006D00003195102031C6D2B6E2BB42B50080A3EDC
:1006E000860087010030C03FC13F50088600870167
:1006F00001088631C8268331B42B5008093E860094
:1007000087010108D100D201D11BD20350080E3E4F
:10071000860087015208803A803C031D912B5108C6
:1007200001020318942B952BAC2B40015008023E7C
:10073000860087010230810050080A3E860087014A
:100740000030C03FC13F5008860087010108C50046
:100750008C31AE248331B42B400150080A3E860010
:1007600087010030C03FC13F400150080C3E860069
:1007700087010130810741310318810A50080C3E7E
:10078000860087011600403AD1001600D104031DEF
:10079000CA2BCB2BD72B50080C3E8600870100308C
:1007A000C03FC13F5008C5008331D82383310800C2
:1007B0008B1FDB2BDC2B202C8B1340014508053EC7
:1007C00086008701403FC600413FC700423FC80046
:1007D000433FC9000430C936C80CC70CC60C890B8E
:1007E000EB2B4508053E8600870146088102413112
:1007F0004708813B41314808813B41314908813BF1
:100800007D314508033E86008701403FC600413FD9
:10081000C7004608C8004708C900CA01CB014508FF
:10082000053E860087014808810741314908813D1E
:1008300041314A08813D41314B08813D8B17612C84
:1008400040014508053E86008701403FC600413F04
:10085000C700423FC800433FC9000430C936C80C36
:10086000C70CC60C890B2E2C4508053E8600870157
:100870004608810241314708813B41314808813BAC
:1008800041314908813B7D314508033E860087019F
:10089000403FC600413FC7004608C8004708C9009E
:1008A000CA01CB014508053E86008701480881073B
:1008B00041314908813D41314A08813D41314B0870
:1008C000813D080040014508053E86008701403F04
:1008D000C600413FC700423FC800433FC900043043
:1008E000C936C80CC70CC60C890B702C4508033ED2
:1008F00086008701403FCA00413FCB004A08CC0038
:100900004B08CD00CE01CF014608CC024708CD3BB5
:100910004808CE3B4908CF3B4F08D3004E08D200D1
:100920004D08D1004C08D0005008C6005108C7003F
:100930005208C8005308C90045080F3E86008701C9
:10094000010AA62CC937C80CC70CC60C890BA22CEF
:100950004908D3004808D2004708D1004608D00013
:10096000D31BC02C5308031DC12C5208031DC12CDE
:100970005108031DC12C80305002031CC02CC12C17
:10098000CA2C00304001D3000030D2000030D1002A
:100990007F30D0004001D31FD82C80305002FF3070
:1009A000513BFF30523BFF30533B0318D82CD92C1E
:1009B000E22CFF304001D300FF30D200FF30D100E5
:1009C0008030D00040014508093E8600870150086C
:1009D00081000800F001400134088E318326843103
:1009E000400132080319F52CF62CF92C4201911321
:1009F0005E2D420191130C30F000400134088D311E
:100A0000F6258431383E4001C4004408F0008D31A1
:100A10000B258431003A031D0E2D0F2D162D40019C
:100A20004408F0008D31152584311C2D4001440807
:100A3000F0008C31C124843140013435263E8600DB
:100A40008701403FFC00413FFD00410114087C024A
:100A5000F00015087D3BF1008D318C25843100308C
:100A60007102653003197002031C372D382D442D97
:100A70000C30F000400134088D31F6258431433EBE
:100A80008600870101154F2D0C30F000400134081D
:100A90008D31F6258431433E8600870101114001E6
:100AA0003108031D542D552D5E2D3435263E86000C
:100AB000870141011408C03F1508C13F40013103BF
:100AC000031D632D642D662DB301692D82317422BF
:100AD00084310800400150080A3E86008701403FEB
:100AE000D100413FD20000305202093003195102B7
:100AF00003187B2D7C2D822D5008CB008731AD272C
:100B00008531872D5008C5008331D82385314001B8
:100B100050080A3E860087010130810741310318E1
:100B2000810A50080A3E86008701403FD100413FBC
:100B3000D20000305202103003195102031CA12DC3
:100B4000A22DCA2D5008053E86008701403FD100E6
:100B5000413FD200423FD300433FD4000430D4365B
:100B6000D30CD20CD10C890BAF2D5008033E86005C
:100B700087015108C03F5208C13F5008023E86001D
:100B800087010130810050080A3E8600870100304D
:100B9000C03FC13F0800400150080A3E860087015F
:100BA000403FD100413FD20003305202E8300319E8
:100BB0005102031CDC2DDD2DEE2D5008860087012F
:100BC00001088631C826853140015008860087011A
:100BD0000108C5008C31AE248531282E5008093E0D
:100BE000860087010108803AD10050080E3E860039
:100BF000870150080E3E840085010008D2000130B4
:100C0000D236890B002E52080102803AD102031815
:100C10000A2E0B2E282E5008023E86008701013036
:100C2000810050080A3E860087010030C03FC13F66
:100C300050080C3E86008701FF30C03FFB30C13FAB
:100C40005008860087010108C5008C31AE2485312B
:100C500008004001D6005608D5000430D535890B70
:100C60002E2E5508A03ED700570A8600870101089E
:100C70008E3159268631003A03193F2E402E7B2EA5
:100C80004001570A8600870101088E31E32686312C
:100C9000003A03194C2E4D2E7B2E40015708CE00F2
:100CA0008E314526863140015708C50084316224C3
:100CB000863140015708023E860087010330010259
:100CC000031C632E642E6B2E5708860087010108D3
:100CD0008631C826863140015708D0005708023EA9
:100CE000860087010135593E86008701413F8A0011
:100CF000403F0A008631080040014B08023E860052
:100D0000870101080319852E862EB72E4B08033E56
:100D100086008701403FCC00413FCD00CD36CC0C52
:100D2000CD36CC0C4B08033E860087014C0881026F
:100D300041314D08813B7F314B0A86008701010814
:100D40008E31CA26863140014808CC004908CD00C2
:100D5000CD36CC0CCD36CC0C4B08033E860087013B
:100D60004C08810741314D08813D7F31C72E4B0A28
:100D70008600870101088E31CA26863140014B0862
:100D8000033E860087014808C03F4908C13F08006C
:100D90004001CA004A08C9000430C935890BCD2E6C
:100DA0004908A03ECB004B08023E86008701810126
:100DB0004B08053E860087010030C03F0030C13F30
:100DC000C23FC33F4B080A3E860087010030C03F48
:100DD000C13F4B080C3E860087010030C03FC13F39
:100DE0004B0A8600870101088D31AE258631080047
:100DF0004201911341018C018D018E018F019201FD
:100E0000930198010A309A009F0142018C018D01E3
:100E100045019F0142018E018F019001920118301E
:100E2000930010309400950196010F3098009701BF
:100E30004001AA01AB01A801A901B7014E010D10A3
:100E400017148D109714843042019100080040015E
:100E5000D3010C30C50053088E3131268731433E13
:100E600086008701811C352F362F4B2F0C30400117
:100E7000C50053088E3131268731383E4001D200FB
:100E80005208CF008F319027873140015308C500A9
:100E90008731FF27873101304001D30753080319F9
:100EA000522F532F292F08004001980199019A01D0
:100EB0003F309200B0309300FF30940037307E0115
:100EC000B800B030C300FF30CE00B901C401CF017B
:100ED000BA01C501D0013730BB00F030C600FF3089
:100EE000D1003F30BC00F030C700FF30D200BD0160
:100EF000BE01BF01C801C901CA01D301D401D50196
:100F000008004001D10151088E3159268731003A3D
:100F1000031D8B2F8C2FA32F400151088E316E267D
:100F20008731003A0319952F962FA32F8C31B224C5
:100F30008731003A031D9D2F9E2FA12F81319521CE
:100F400087310030AC2F01304001D107510803191F
:100F5000AA2FAB2F832F0130080040014B0A8600D7
:100F6000870101088E31CA26873140014808CC002C
:100F70004908CD00CE01CF014B08053E8600870110
:100F80004C08C03F4D08C13F4E08C23F4F08C33F09
:100F90004B08053E86008701043081354131810DC3
:100FA0004131810D4131810D7D31890BCD2F0800FB
:100FB00040014508023E8600870102300106031DFC
:100FC000E22FE32FFE2F45080A3E860087010130FD
:100FD000810741310318810A45080A3E86008701CE
:100FE00016000104031DF52FF62FFE2F45080A3EBB
:100FF00086008701FF30C03FFF30C13F0800080076
:10195C0008004E010D1008004001330808008F31BB
:10196C006F278C3108008D319D258C3108008C310E
:10197C00F3248C31080070080B3E8600870181141B
:10198C0008004E018D108431EA248C31080040018E
:10199C004608AD004508AC00080040014608A90007
:1019AC004508A8000800640080010131890BDA2C7D
:1019BC000034FE0012001E00FE0BE02C00347008F8
:1019CC000B3E86008701010E0139080040014808D2
:1019DC000B3E8600870181100800A0304001C50035
:1019EC008731D8278C310800400145080B3E860012
:1019FC008701010E01390800603051018D008F0103
:101A0C009101063093009201080070080B3E86008D
:101A1C008701010CF100F10C710C01390800700800
:101A2C000B3E86008701811570080B3E86008701EE
:101A3C0001120800400145080B3E86008701010C8D
:101A4C00C600C60C460C013908008D317C258D3141
:101A5C008B170B178D31E4258D31302D80312828D3
:101A6C004E010C100B1400304001C5000030C600B4
:101A7C008C31CD248D3108008F3135278D318F314C
:101A8C0018278D318F3152278D318C31B5248D3102
:101A9C0008004E018D104001280829040319572D08
:101AAC00582D5D2D29088A0028080A008D31080060
:101ABC004001D8015808863129268D31013040016A
:101ACC00D807580803196B2D6C2D602D08006A344B
:101ADC00053440340334CB34053400341E343C34E8
:101AEC00AE340C34AE340C34FF3407348D31022553
:101AFC008D31873154278D318631F8268D318D31DA
:101B0C0042258D318D3136258D310800F11B8F2DFD
:101B1C00902D912D9C2D7009F2007109F300F20AA1
:101B2C000319F30A7208F0007308F1000800013081
:101B3C004001B00703303002031CA52DA62DA72DA4
:101B4C00B00130085F3E860087010108AF00080035
:101B5C004001C8004808031DB42DB52DBF2D0C3015
:101B6C00C50048088E3131268D31433E86008701F1
:101B7C00811108004001C8004808031DC62DC72D5F
:101B8C00D12D0C30C50048088E3131268D31433EA5
:101B9C008600870101140800873181278D31003AB6
:101BAC00031DD92DDA2DDC2D0030E32D8C31B92419
:101BBC008D31873127278D31013008008F31B527C2
:101BCC008D3100308E31FC268D31003A0319EF2D0A
:101BDC00F02DF32D40011917F52D400119130800B4
:101BEC00F200F101721CFB2DFC2DFE2D7008F1078B
:101BFC000310F00D0310F20C7208031D062E072EB5
:101C0C00F82D71080800F3007308031D0E2E0F2E1B
:101C1C001B2E0C30F00073088D31F6258E31433EAF
:101C2C0086008701010801391C2E00300800F300E2
:101C3C007308031D222E232E2F2E0C30F000730858
:101C4C008D31F6258E31433E86008701010C01391A
:101C5C00302E003008004001C700C601471C372E4B
:101C6C00382E3A2E4508C6070310C50D0310C70CB5
:101C7C004708031D422E432E342E460808008B1FA6
:101C8C00482E492E522E8B1340014E08CB00863124
:101C9C007C268E318B17582E40014E08CB00863196
:101CAC007C268E3108004001C8004808031D5F2EB9
:101CBC00602E6C2E0C30C50048088E3131268E31CA
:101CCC00433E86008701010C01396D2E003008005F
:101CDC004001C8004808031D742E752E812E0C304F
:101CEC00C50048088E3131268E31433E860087016F
:101CFC0001080139822E00300800F3008C2E700C84
:101D0C004001031C931303189317992E7308F100C9
:101D1C00F2017208003A0319942E992E7108003AB8
:101D2C000319852E992E08004001C800A32E450CDE
:101D3C00031C931303189317B02E4808C600C70151
:101D4C004708003A0319AB2EB02E4608003A031987
:101D5C009D2EB02E08004001C90049088D31C025C8
:101D6C008E31400149088D31AE258E310C30400149
:101D7C00C50049088E3131268E31383E4001C800ED
:101D8C008C31EC248E3108004001CA004A08031D36
:101D9C00D02ED12EE02E0C30C5004A088E313126C3
:101DAC008E31413E86008701403F4001C800413FD3
:101DBC00C900E22EC801C90108004001C900490848
:101DCC00031DE92EEA2EFA2E0C30C50049088E317F
:101DDC0031268E31433E86008701010C4001C8003C
:101DEC00C80C480C0139FB2E003008004001C6001D
:101DFC004608031D022F032F162F4608C50004307A
:101E0C00C535890B062F4508A23E86008701023096
:101E1C0001060319122F142F0130152F0030172F24
:101E2C0000300800A0304001C5000030C6009030E2
:101E3C00C7001030C8000030C9008F31DA278F314D
:101E4C004001CE014E088631C8268F310130400149
:101E5C00CE074E080319332F342F282F08003830A3
:101E6C004001C5001030C6009030C7000C30C800CF
:101E7C000030C9008F31DA278F314001CE014E0876
:101E8C008E31B1268F3101304001CE074E08031937
:101E9C00502F512F452F080038304001CA003830E0
:101EAC00C9004A08490203185C2F5D2F5E2F6E2F64
:101EBC004A08C8008C31EC248F310C304001CA0721
:101ECC003830C9004A08490203186D2F6E2F5E2F57
:101EDC0008000F304201980096018E0141018C01DF
:101EEC008D018E018F0192019301413042019200CC
:101EFC00AB3093000F309400C43091004E018D1024
:101F0C009714C7304001C5000C30C6008C31D32467
:101F1C008F31080040014F0886008701010880318D
:101F2C004A208F3140014908D1004808D0008B1F4E
:101F3C00A02FA12FAC2F8B134F08093E86008701D1
:101F4C005008C03F5108C13F8B17B42F4F08093EB2
:101F5C00860087015008C03F5108C13F080040016E
:101F6C0035080319BA2FBB2FC02F8D3142258F3165
:101F7C004001B5010130B6008D31D2258F31003AC8
:101F8C00031DC92FCA2FCB2FD92F8D315E258F3131
:101F9C00803102208F314001B6008F3152278F31B2
:101FAC008C31BD248F31080040014708CB00460816
:101FBC00CA004508CD00F32F4A0884004B08850061
:101FCC000008CC000130CA070030CB3D4D0886001C
:101FDC0087014C0881000130CD070130C802003068
:101FEC00C93B480A031DFE2F490A031DFE2FFF2F74
:101FFC00E22F080000340034003400340034003484
:10200C000034003400340034003400340034003424
:10201C006434013400340F34C034003440340034A0
:0C202C0020340034003400340034003450
:020000040001F9
:0A000E008C3FFF3F9F3FFF3FFF3F85
:00000001FF
